:1000000000800020BD010000117F0100C97E0100B9
:10001000C97E0100C97E0100C97E0100C97E0100C0
:10002000C97E0100C97E0100C97E0100117F010067
:10003000117F0100C97E0100ED990100F19A0100D4
:10004000117F0100117F0100117F0100117F01006C
:10005000117F0100117F0100117F0100117F01005C
:10006000117F0100117F0100117F0100117F01004C
:10007000117F0100117F0100117F0100117F01003C
:10008000117F0100117F0100117F0100117F01002C
:10009000117F0100117F0100117F0100117F01001C
:1000A00001A400000DA40000117F0100117F0100D8
:1000B000117F0100117F0100117F0100117F0100FC
:1000C000117F0100117F0100117F0100117F0100EC
:1000D000117F0100117F0100117F0100117F0100DC
:1000E000117F0100117F0100117F0100117F0100CC
:1000F000117F010015A10100117F01003D8A01005F
:10010000117F010041A20100117F0100117F010058
:10011000117F0100117F0100117F0100117F01009B
:10012000117F0100117F0100117F0100117F01008B
:10013000117F0100117F0100117F0100117F01007B
:10014000117F0100117F0100117F0100117F01006B
:10015000117F0100117F0100117F0100117F01005B
:10016000196B0100B98C0100117F0100117F0100A2
:10017000117F0100117F0100117F0100117F01003B
:10018000117F0100117F0100117F0100117F01002B
:10019000117F0100117F0100117F0100117F01001B
:1001A000117F0100117F0100117F0100117F01000B
:1001B000117F0100117F0100117F0100564B4CF2AD
:1001C000205210B51A804DF628121A8000BF00BFC9
:1001D00017F0A2FE514B4FF010621A60504A9A601D
:1001E000504ADA60504A136813F4807304D14F49BF
:1001F0000B604FF4A85313604D4B1A78110703D5C9
:100200001A7842F008021A704A4B4B492A221A7097
:100210004A4A4B4B8B4204D252F8040F43F8040B6A
:10022000F8E7484B484900228B4202D243F8042B9E
:10023000FAE74649464A002352F8230041F82300D2
:1002400001336F2BF8D1434B434A802103F8011B44
:100250009342FBD1414B3D4A1A60414B8A221A70AE
:10026000A3F5805324225A70A0221A709A7992071B
:10027000FCD59A79D406FCD43A4A937903F00C035E
:10028000082B384BF9D105221A7143225A719A79F9
:100290009006FCD5334A9179324B4906FBD5324A58
:1002A0004FF0817111600521516020221A709A79F6
:1002B00002F00C020C2AFAD12C4B2D4A1A602D4B5D
:1002C0002D4A1A6000225A60072243F8042C2B4A58
:1002D000C3F80C2D62B618F01DF8144B1B68DA0732
:1002E00005D5274817F076FF264B274A1A60274B7B
:1002F0001B785B0609D5234C234B22689A4204D114
:100300001F4817F067FF002323601DF035FC17F02E
:1003100009FE19F061FEFEE70E2005403080044022
:10032000823F04000100002B10D0034014D0034092
:1003300002D0074000E007400098FF1F149302001E
:100340002087FF1F0098FF1F90A1FF1F0082FF1F43
:100350000000000000E400E05FE400E008ED00E0E1
:1003600000500640004006404480044004800440A1
:10037000C010050014E000E03F190100000020203B
:10038000A919375C1CE00340A5C3945A00F007404C
:10039000FFFFFFFFFFFFFFFFFFFFFFFFFFFFFFFF6D
:1003A000FFFFFFFFFFFFFFFFFFFFFFFFFFFFFFFF5D
:1003B000FFFFFFFFFFFFFFFFFFFFFFFFFFFFFFFF4D
:1003C000FFFFFFFFFFFFFFFFFFFFFFFFFFFFFFFF3D
:1003D000FFFFFFFFFFFFFFFFFFFFFFFFFFFFFFFF2D
:1003E000FFFFFFFFFFFFFFFFFFFFFFFFFFFFFFFF1D
:1003F000FFFFFFFFFFFFFFFFFFFFFFFFFFFFFFFF0D
:10040000FFFFFFFFFFFFFFFFFFFFFFFFDEF9FFFF23
:1004100010B5054C237833B9044B13B10448AFF33E
:1004200000800123237010BD0098FF1F0000000012
:1004300010930200084B10B51BB108490848AFF3F0
:1004400000800848036803B910BD074B002BFBD0A0
:10045000BDE81040184700BF000000000498FF1FCF
:10046000109302000098FF1F00000000704700BFBB
:10047000704700BF704700BF704700BF704700BFA4
:10048000704700BF704700BF0020704790F8C2302F
:100490000122022B827612D0D0F8B82000F18C0312
:1004A0000221934280F8C21009D000220C21C0F82A
:1004B000B830A0F8C02080F8B020C0F8BC10704759
:1004C000004870470201566890F8B2300122022BB2
:1004D000827612D0D0F8A82000F17C03022193424A
:1004E00080F8B21009D000220C21C0F8A830A0F882
:1004F000B02080F8A020C0F8AC10704700487047CA
:100500000103566890F8B2300122022B827612D095
:10051000D0F8A82000F17C030221934280F8B210A9
:1005200009D000220C21C0F8A830A0F8B02080F833
:10053000A020C0F8AC10704700487047020256680F
:100540000846114619F0ECB818F0F6B919F0BEB823
:1005500019F080B8C37E2BB98988A1F57A73B3F5F9
:100560007A7F00D9704700F5387016F0C3BA00BF23
:1005700010B5044B044640F8083B19F0C1FC204676
:1005800010BD00BF9853020010B5064B044640F85A
:10059000083B19F0B5FC20464FF43C7119F026FDDC
:1005A000204610BD9853020038B50446D0F8180311
:1005B000134B144D2360C4F8005310B1142119F0EB
:1005C00015FDD4F8E002C4F8C85210B1142119F096
:1005D0000DFDD4F8A802C4F8905210B1142119F0FE
:1005E00005FDD4F87002C4F8585210B1142119F066
:1005F000FDFC04F1080019F083FC204638BD00BF63
:10060000305302000C53020038B50446D0F85402AF
:10061000134B144D2360C4F83C5210B1142119F04F
:10062000E5FCD4F81C02C4F8045210B1142119F0EE
:10063000DDFCD4F8E401C4F8CC5110B1142119F058
:10064000D5FCD4F8AC01C4F8945110B1142119F0C0
:10065000CDFC04F1080019F053FC204638BD00BF62
:10066000DC5302000C53020090F8B2200023837682
:1006700082B1D0F8A81080F8B23000F16C028A4242
:1006800008D00421A0F8B03080F8A030C0F8A8202D
:10069000C0F8AC10704700BF90F8B22000238376FA
:1006A00082B1D0F8A81080F8B23000F16C028A4212
:1006B00008D00421A0F8B03080F8A030C0F8A820FD
:1006C000C0F8AC10704700BF10B540F2DC510446D2
:1006D00000F51D7016F00EFA04F52B7040F2DC5197
:1006E00016F008FA04F5397040F2DC5116F002FAFF
:1006F00004F5477040F2DC5116F0FCF9D4F8702292
:1007000072B60023D36062B6D4F8A82272B6D36062
:1007100062B6D4F8E02272B6D36062B6D4F8182379
:1007200072B6D36062B694F8C220A37682B1D4F8D0
:10073000B81084F8C23004F17C028A4208D0042147
:10074000A4F8C03084F8B030C4F8B820C4F8BC10A5
:1007500010BD00BF38B50446D0F85402154B164DF5
:100760002360C4F83C5210B1142119F03FFCD4F8B6
:100770001C02C4F8045210B1142119F037FCD4F84B
:10078000E401C4F8CC5110B1142119F02FFCD4F8B5
:10079000AC01C4F8945110B1142119F027FC04F1F4
:1007A000080019F0ADFB20464FF45C7119F01EFCF7
:1007B000204638BDDC5302000C53020038B5044615
:1007C000D0F81803154B164D2360C4F8005310B130
:1007D000142119F00BFCD4F8E002C4F8C85210B18F
:1007E000142119F003FCD4F8A802C4F8905210B1F7
:1007F000142119F0FBFBD4F87002C4F8585210B160
:10080000142119F0F3FB04F1080019F079FB2046DC
:100810004FF4896119F0EAFB204638BD30530200DD
:100820000C5302002DE9F04186B090F82C308DF881
:10083000053006466923002590F831008DF8043014
:100840000C468DF8065017F037FA8046D6E90E01AF
:100850001CF0B8FC07461FFA88F01CF0BDFD0146ED
:1008600038461CF00DFE0746D6E910011CF0AAFC24
:10087000014638461CF0FCFC26491CF001FE1CF029
:10088000C5FF06ABADF8080053F8140DCDF80E0007
:100890009B88ADF81230C822062328468DF80C201C
:1008A00004F10C058DF80D30C2B20823D10748BF02
:1008B000217B03F1FF3348BF4A4013F0FF034FEAA7
:1008C0005202F3D10130B0F5807F05F8012FEBD152
:1008D0000DF10D010DF1130011F8012F53402344C8
:1008E00088425B7BF8D1D4F810018DF8143003688E
:1008F000094A5B68934209D1092103A818F010FF47
:10090000003018BF012006B0BDE8F081092203A91C
:100910009847F5E700007A4441050000F8B590F8E3
:10092000E13000AF002B5ED090F8E230002B56D0C3
:10093000002380F8AA308CB0C82228238DF800202C
:100940008DF80130EE4600F1A8030DF10202C83027
:10095000D3F800C05E689D68DC68D46010338342C1
:10096000C2F800C05660956002F11002F0D118681C
:100970005B685360106001F10C060025EAB20823A1
:10098000D00748BF0C7B03F1FF3348BF624013F030
:10099000FF034FEA5202F3D10135B5F5807F06F827
:1009A000012FEBD10EF101040EF1290014F8012FF3
:1009B00053400B4484425B7BF8D1D1F810018EF890
:1009C0002A3003680C4A5B68934210D170462B2191
:1009D00018F0A6FE003018BF0120BD46F8BD012367
:1009E00080F8AA30A7E7022380F8AA30A3E771466F
:1009F0002B229847EEE700BF41050000F0B585B017
:100A0000837902798DF80730002468238DF805205A
:100A10008DF804308DF806400198CDF80A00C82200
:100A2000042301F10C058DF808208DF80930E2B29D
:100A30000823D00748BF087B03F1FF3348BF42407B
:100A400013F0FF034FEA5202F3D10134B4F5807F73
:100A500005F8012FEBD19DF80A509DF80B409DF849
:100A60000C209DF80D70D1F810010F4E0D446B7BDA
:100A70005C400C44637B5A400A44537B7B401944DE
:100A80004B7B8DF80E3003685B68B34208D10721B9
:100A900002A818F045FE003018BF012005B0F0BDD7
:100AA000072202A99847F6E7410500002DE9F04129
:100AB00086B003798DF80530064669230025407A13
:100AC0008DF804300C468DF8065017F0F5F8804686
:100AD000D6E904011CF076FB07461FFA88F01CF0EB
:100AE0007BFC014638461CF0CBFC0746D6E90601E4
:100AF0001CF068FB014638461CF0BAFB26491CF086
:100B0000BFFC1CF083FE06ABADF8080053F8140DD3
:100B1000CDF80E009B88ADF81230C8220623284677
:100B20008DF80C2004F10C058DF80D30C2B20823AD
:100B3000D10748BF217B03F1FF3348BF4A4013F080
:100B4000FF034FEA5202F3D10130B0F5807F05F880
:100B5000012FEBD10DF10D010DF1130011F8012F53
:100B60005340234488425B7BF8D1D4F810018DF8C0
:100B700014300368094A5B68934209D1092103A82C
:100B800018F0CEFD003018BF012006B0BDE8F0819E
:100B9000092203A99847F5E700007A4441050000BF
:100BA000F0B585B000256823064640798DF80650DB
:100BB0000C468DF8043017F025FB401B33798DF877
:100BC000053018BF01208DF807000198CDF80A0004
:100BD000C822042329468DF8082004F10C058DF85D
:100BE0000930CAB20823D00748BF207B03F1FF3386
:100BF00048BF424013F0FF034FEA5202F3D10131E4
:100C0000B1F5807F05F8012FEBD19DF80A509DF8D2
:100C10000B109DF80C209DF80D70D4F810010F4EAC
:100C200025446B7B594021444B7B5A402244537BE3
:100C30007B401C44637B8DF80E3003685B68B342D5
:100C400008D1072102A818F06BFD003018BF012061
:100C500005B0F0BD072202A99847F6E7410500005C
:100C60002DE9F04186B003798DF8053000226A2322
:100C70000546407A8DF806208DF804300C4617F0B2
:100C80001BF80746288A1CF0A7FB014668691CF080
:100C9000ABFCE9681CF0F4FB064638461CF09CFBF4
:100CA000014630461CF0ECFB57491CF0E9FB1CF0F8
:100CB000ADFDADF80800687A16F0FEFF0746288AF9
:100CC0001CF08AFB014668691CF08EFCE9681CF088
:100CD000D7FB064638461CF07FFB014630461CF029
:100CE000CFFB064695F821001CF076FB0146304606
:100CF0001CF064FD00283DD195F822001CF06CFB2F
:100D0000014630461CF078FD002833D1687A16F091
:100D1000D3FF8046288AEE691CF05EFB01466869B5
:100D20001CF062FCE9681CF0ABFB074640461CF077
:100D300053FB014638461CF0A3FB074695F82000FC
:100D40001CF04AFB31491CF04FFC31468046A86933
:100D50001CF08CFA014640461CF092FB31461CF018
:100D600087FA014638461CF033FD30B101238DF877
:100D7000063002E002238DF8063006ABC82253F895
:100D8000140DCDF80E009B88ADF8123006238DF8B7
:100D90000C208DF80D3004F10C050020C2B20823A0
:100DA000D10748BF217B03F1FF3348BF4A4013F00E
:100DB000FF034FEA5202F3D10130B0F5807F05F80E
:100DC000012FEBD10DF10D010DF1130011F8012FE1
:100DD0005340234488425B7BF8D1D4F810018DF84E
:100DE000143003680A4A5B68934209D1092103A8B9
:100DF00018F096FC003018BF012006B0BDE8F08165
:100E0000092203A99847F5E700007A440000C84288
:100E100041050000FFFFFFFF70B590F84830002249
:100E200090B0044680F86C234BB9AF4B1B68099314
:100E3000099BC36332220123426480F8483094F84E
:100E400038304BB9A84B1B680893089BE3626422B7
:100E50000123626384F8383094F8583053B9A24BB8
:100E60001B680793079BE3644FF47A720123626562
:100E700084F8583094F8683053B99B4B1B6806933C
:100E8000069BE3654FF4FA620123626684F86830DA
:100E900094F8283053B9944B1B680593059BE36184
:100EA00041F288320123626284F828308CA3D3E9AE
:100EB0000023CDE90C230E2600230A224FF496705E
:100EC00041F288310A930B938DF829600F93ADF8A6
:100ED0003800ADF83A100AAD8DF828208DF82A2098
:100EE0000FCD04F1D006C4F8D000286830617160DD
:100EF000B260F36094F8CC3094F8D02084F8BC2031
:100F000083B9794B94F8D2201B680493049BC4F8EE
:100F1000C03001214FF47A7384F8CC1093FBF2F3C4
:100F2000C4F8C8300B220F238DF828208DF8293003
:100F30000AAD0FCD04F58076C4F800012868306151
:100F40007160B260F36094F8FC3094F8002184F88A
:100F5000EC2083B9644B94F802211B680393039B34
:100F6000C4F8F03001214FF47A7384F8FC1093FB3D
:100F7000F2F3C4F8F8300C2210230AAD8DF82820C3
:100F80008DF829300FCD04F59876C4F83001286823
:100F900030617160B260F36094F82C3194F83021C4
:100FA00084F81C2183B9504B94F832211B680293BA
:100FB000029BC4F8203101214FF47A7384F82C117C
:100FC00093FBF2F3C4F82831484BC4F8183343F6C6
:100FD000982017F00FFA94F8543363B9424B1B680A
:100FE0000193019BC4F848334FF4FA620123C4F81B
:100FF000502384F854334FF47A7017F03BF91423DC
:1010000084F84C313A4808F0D5FE4FF4247018F0BB
:10101000EBFF384905460BF043FCC4F85451284611
:101020000FF002F90368C4F850011B699847D4F81F
:101030005031314AD3F88430C4F85801012584F87E
:101040005C514FF47A7083F8A15083F8A25083F872
:10105000A3501A6717F00EF994F85C31A3B3D4F8D3
:1010600050311A794AB3254904F1080018F0AAFF53
:10107000012384F86C3323760D2084F86503012165
:1010800017F0CEF894F8B23004F55872C4F8A420E2
:101090008BB1D4F8A81004F16C0200238A4284F8C2
:1010A000B23008D00421A4F8B03084F8A030C4F8DD
:1010B000A820C4F8AC1010B070BDD3F8803093F8FD
:1010C0002530002BCFD0D7E70D4904F1080018F0E8
:1010D00079FF0223257684F86C33CDE7AFF30080E7
:1010E00000000040E17A743F989EFF1F908DFF1F23
:1010F000FC87FF1F405402000AD7A33C585402004B
:101100004C5402008A88A2F57A73B3F57A7F0FD81F
:101110004B78013B032B0BD8DFE803F00B1F3302A6
:10112000B0F80C33934203D8B0F80A3393423CD260
:101130007047B0F864329342FAD8B0F86232934202
:10114000F6D340F2DC539A4249D9B0F868120A4407
:1011500091B200F51D7015F0CDBCB0F89C329342F1
:10116000E6D8B0F89A329342E2D340F2DC539A4286
:101170002ED9B0F8A0120A4491B200F52B7015F0E8
:10118000B9BCB0F8D4329342D2D8B0F8D23293423C
:10119000CED340F2DC539A4213D9B0F8D8120A44A5
:1011A00091B200F5397015F0A5BC40F2DC539A42BB
:1011B0001CD9B0F810130A4491B200F5477015F02D
:1011C00099BC1DBFB0F8D612521A91B21146E8E789
:1011D0001DBFB0F89E12521A91B21146CDE71DBF45
:1011E000B0F86612521A91B21146B2E71DBFB0F8BC
:1011F0000E13521A91B21146DFE700BFFFFFFFFF47
:101200002DE9F04390F84830002297B0044680F86A
:10121000E8224BB9CA4B1B680793079BC363322272
:101220000123426480F8483094F838304BB9C44BFD
:101230001B680693069BE36264220123626384F8C1
:10124000383094F8583053B9BD4B1B680593059B53
:10125000E3644FF4FA620123626584F8583094F82D
:10126000283053B9B64B1B680493049BE36141F2E9
:1012700088320123626284F82830202200210EA8DF
:101280001DF03EF8A8A3D3E90023A9A1D1E90001EC
:10129000CDE91423CDE912014FF0140C4FF4FA6993
:1012A0000A27152240F2DC534FF47A768DF838C0C5
:1012B0008DF839C0ADF83C908DF83A20ADF83E304D
:1012C000ADF840608DF842700EAD0FCD04F5287E6C
:1012D000AEE80F0095E80F0004F538758EE80F00B2
:1012E00004F526784B46614684F89CC2324628466F
:1012F00015F0A4FBD8E90823D8E90601CDE90C23B1
:10130000CDE90A014FF0000994F8AAC294F8A2327C
:10131000CDF82090CDF824908DF822C08DF82130A2
:101320000DF12008B8E80F0004F5327EAEE80F009A
:1013300098E803008EE80300604684F8C49216F033
:1013400087FC2846B4F8A61215F0D4FB7AA3D3E99B
:101350000023CDE90A2310214FF4967241F288331D
:10136000CDF82090CDF82490CDF83490ADF8302011
:10137000ADF832308DF820708DF8227008AD8DF800
:1013800021100FCDC4F8D000C4F8DC3094F8CC3074
:10139000D8F80000C4F8D82094F8D020C4F8E000B1
:1013A000C4F8D41084F8BC2073B9654B94F8D220EB
:1013B0001B680393039BC4F8C030012396FBF2F62D
:1013C00084F8CC30C4F8C8600B220F238DF820209D
:1013D0008DF8213008AD0FCD04F58076C4F80001FA
:1013E000286830617160B260F36094F8FC3094F862
:1013F000002184F8EC2083B9514B94F802211B683A
:101400000293029BC4F8F03001214FF47A7384F800
:10141000FC1093FBF2F3C4F8F8300C220E2308AD55
:101420008DF820208DF821300FCD04F59876C4F882
:101430003001286830617160B260F36094F82C313B
:1014400094F8302184F81C2183B93D4B94F8322163
:101450001B680193019BC4F8203101214FF47A737A
:1014600084F82C1193FBF2F3C4F828310B2084F894
:101470009102022116F0D4FE324BC4F8383243F602
:10148000982016F0B7FF94F8743263B92C4B1B68A0
:101490000093009BC4F868324FF4FA620123C4F849
:1014A000702284F874324FF47A7016F0E3FE14233D
:1014B00084F84C31244808F07DFC4FF4247018F077
:1014C00093FD224905460BF0EBF9C4F85451284628
:1014D0000EF0AAFE0368C4F850011B699847D4F8BF
:1014E00050311B4AD3F88430C4F85801012584F8E0
:1014F0005C514FF47A7083F8A15083F8A25083F8BE
:10150000A3501A6716F0B6FE94F85C31002B4FD04A
:10151000D4F850311A79002A43D00E4904F108005A
:1015200018F050FD012317E000000080BE9F9ABF15
:1015300000000020963E453F00000040E17A743FE5
:10154000989EFF1F908DFF1FFC87FF1F40540200D5
:101550000AD7A33C5854020084F8E83223760D20C1
:1015600084F88502012116F05BFE94F8B23004F590
:101570002072C4F8A4208BB1D4F8A81004F16C0236
:1015800000238A4284F8B23008D00421A4F8B03095
:1015900084F8A030C4F8A820C4F8AC1017B0BDE897
:1015A000F083D3F8803093F82530002BB5D0D6E700
:1015B000044904F1080018F005FD0223257684F89B
:1015C000E832CCE74C540200F0B589B0037D3E4EC2
:1015D00000AF53B133687B607B6884680269C36085
:1015E0001B1B93426BD3002303750546407E0C46BC
:1015F00016F062FB1BF088FAD5E908231BF0EAFA23
:101600000022324B1BF0E6FA1BF0BCFD3368BB60D6
:101610002B7DBA68AA60002B48D02B797B73692197
:10162000002307F1200238823973BB7352F8140D7E
:10163000C7F8160092887A83C821062218463975A1
:101640007A756D4604F10C06C2B20823D10748BF73
:10165000217B03F1FF3348BF4A4013F0FF034FEAF9
:101660005202F3D10130B0F5807F06F8012FEBD1A3
:1016700007F1150107F11B0011F8012F5340234416
:1016800088425B7BF8D1D4F810013B770368104A9D
:101690005B6893420DD0092207F11401984700308E
:1016A00018BF0120AD462437BD46F0BD01232B7580
:1016B000B3E7092107F1140018F032F8EFE7002032
:1016C0002437BD46F0BD00BF989EFF1F00408F40ED
:1016D000410500002DE9F04F85B00546806803689C
:1016E00000AF9B690C469847002800F08580AB68E6
:1016F0002A79BA601A6CD3F818A0D86BD96DD3F8D0
:1017000014B0D3F81C909E6BD3F84880D3F84CC02B
:10171000D3F850E0FA60C7F804D09A6D1B6EAB6442
:101720008EB0C5F820A0A863C823F8682A644FF0DB
:10173000340A6964C5F81CB0C5F82490C5F828803F
:10174000C5F82CC0C5F830E06E63E8638DF8003052
:101750008DF801A03B7A6B76694605F118030DF10F
:1017600002024835D3F800E05E689868D3F80CC0F0
:10177000C2F80CC01033AB42C2F800E05660906073
:1017800002F11002EED11B68136004F10C06002078
:10179000C2B20823D50748BF257B03F1FF3348BFFA
:1017A0006A4013F0FF034FEA5202F3D10130B0F563
:1017B000807F06F8012FEBD1481C01F1350510F8A8
:1017C000012F5340234485425B7BF8D1D4F81001AC
:1017D00081F8363003683D4A5B68934273D108460E
:1017E000372117F09DFF0030D7F804D018BF012033
:1017F0001437BD46BDE8F08F2B7D1BB11437BD46B5
:10180000BDE8F08F6E468EB00223C8213422AB763D
:101810008DF800108DF8012069460DEB030205F1EB
:1018200018034835D3F800C0D3F804E09868D3F81B
:101830000C80C2F80C801033AB42C2F800C0C2F872
:1018400004E0906002F11002ECD11B68136004F117
:101850000C004FF0000E5FFA8EF20823D50748BF48
:10186000257B03F1FF3348BF6A4013F0FF034FEAC3
:101870005202F3D10EF1010EBEF5807F00F8012F68
:10188000E9D1481C01F1350510F8012F53402344DC
:1018900085425B7BF8D1D4F8100181F836300368BB
:1018A0000A4A5B6893420BD10846372117F038FF8C
:1018B000003018BF0120B5461437BD46BDE8F08F93
:1018C00037229847F4E7372298478CE74105000014
:1018D0001F4B10B41A681368506819780478507A4E
:1018E000137A044201EA03011AD0937A03F0030346
:1018F00009B143F0040343F008039910013B9172CE
:101900000D2B0BD8DFE803F01E0719070A141E1E63
:10191000140A0719071ED368013BD36010BC704737
:10192000937A03F003030029E7D043F00403E4E7CC
:10193000D36810BC023BD3607047D36810BC02333D
:10194000D3607047D36810BC0133D360704700BFC9
:10195000D89DFF1F1F4B10B4D3F880201368506828
:1019600019780478507A137A044201EA03011AD0F4
:10197000937A03F0030309B143F0040343F008032F
:101980009910013B91720D2B0BD8DFE803F01E0775
:1019900019070A141E1E140A0719071ED368013BF3
:1019A000D36010BC7047937A03F003030029E7D09B
:1019B00043F00403E4E7D36810BC023BD3607047F4
:1019C000D36810BC0233D3607047D36810BC0133B6
:1019D000D3607047D89DFF1F1F4B10B4D3F88420ED
:1019E0001368506819780478507A137A044201EA2F
:1019F00003011AD0937A03F0030309B143F00403FF
:101A000043F008039910013B91720D2B0BD8DFE8CE
:101A100003F01E0719070A141E1E140A0719071ED1
:101A2000D368013BD36010BC7047937A03F0030383
:101A30000029E7D043F00403E4E7D36810BC023B7D
:101A4000D3607047D36810BC0233D3607047D3684B
:101A500010BC0133D3607047D89DFF1F1F4B10B4DB
:101A60001A6C1368506819780478507A137A044213
:101A700001EA03011AD0937A03F0030309B143F09A
:101A8000040343F008039910013B91720D2B0BD80E
:101A9000DFE803F01E0719070A141E1E140A0719AF
:101AA000071ED368013BD36010BC7047937A03F0E4
:101AB00003030029E7D043F00403E4E7D36810BC34
:101AC000023BD3607047D36810BC0233D3607047C9
:101AD000D36810BC0133D360704700BFD89DFF1F8F
:101AE0001F4B10B45A6C1368506819780478507AF8
:101AF000137A044201EA03011AD0937A03F0030334
:101B000009B143F0040343F008039910013B9172BB
:101B10000D2B0BD8DFE803F01E0719070A141E1E51
:101B2000140A0719071ED368013BD36010BC704725
:101B3000937A03F003030029E7D043F00403E4E7BA
:101B4000D36810BC023BD3607047D36810BC02332B
:101B5000D3607047D36810BC0133D360704700BFB7
:101B6000D89DFF1F1F4B10B49A6C136850681978EA
:101B70000478507A137A044201EA03011AD0937A66
:101B800003F0030309B143F0040343F00803991081
:101B9000013B91720D2B0BD8DFE803F01E071907EC
:101BA0000A141E1E140A0719071ED368013BD360CE
:101BB00010BC7047937A03F003030029E7D043F089
:101BC0000403E4E7D36810BC023BD3607047D368DA
:101BD00010BC0233D3607047D36810BC0133D360AC
:101BE000704700BFD89DFF1F1F4B10B4DA6C1368FD
:101BF000506819780478507A137A044201EA030194
:101C00001AD0937A03F0030309B143F0040343F0BD
:101C100008039910013B91720D2B0BD8DFE803F0FC
:101C20001E0719070A141E1E140A0719071ED36877
:101C3000013BD36010BC7047937A03F00303002983
:101C4000E7D043F00403E4E7D36810BC023BD36061
:101C50007047D36810BC0233D3607047D36810BCA0
:101C60000133D360704700BFD89DFF1F1F4B10B4D6
:101C70001A6D1368506819780478507A137A044200
:101C800001EA03011AD0937A03F0030309B143F088
:101C9000040343F008039910013B91720D2B0BD8FC
:101CA000DFE803F01E0719070A141E1E140A07199D
:101CB000071ED368013BD36010BC7047937A03F0D2
:101CC00003030029E7D043F00403E4E7D36810BC22
:101CD000023BD3607047D36810BC0233D3607047B7
:101CE000D36810BC0133D360704700BFD89DFF1F7D
:101CF0001F4B10B45A6D1368506819780478507AE5
:101D0000137A044201EA03011AD0937A03F0030321
:101D100009B143F0040343F008039910013B9172A9
:101D20000D2B0BD8DFE803F01E0719070A141E1E3F
:101D3000140A0719071ED368013BD36010BC704713
:101D4000937A03F003030029E7D043F00403E4E7A8
:101D5000D36810BC023BD3607047D36810BC023319
:101D6000D3607047D36810BC0133D360704700BFA5
:101D7000D89DFF1F1F4B10B49A6D136850681978D7
:101D80000478507A137A044201EA03011AD0937A54
:101D900003F0030309B143F0040343F0080399106F
:101DA000013B91720D2B0BD8DFE803F01E071907DA
:101DB0000A141E1E140A0719071ED368013BD360BC
:101DC00010BC7047937A03F003030029E7D043F077
:101DD0000403E4E7D36810BC023BD3607047D368C8
:101DE00010BC0233D3607047D36810BC0133D3609A
:101DF000704700BFD89DFF1F1F4B10B4DA6D1368EA
:101E0000506819780478507A137A044201EA030181
:101E10001AD0937A03F0030309B143F0040343F0AB
:101E200008039910013B91720D2B0BD8DFE803F0EA
:101E30001E0719070A141E1E140A0719071ED36865
:101E4000013BD36010BC7047937A03F00303002971
:101E5000E7D043F00403E4E7D36810BC023BD3604F
:101E60007047D36810BC0233D3607047D36810BC8E
:101E70000133D360704700BFD89DFF1F1F4B10B4C4
:101E80001A6E1368506819780478507A137A0442ED
:101E900001EA03011AD0937A03F0030309B143F076
:101EA000040343F008039910013B91720D2B0BD8EA
:101EB000DFE803F01E0719070A141E1E140A07198B
:101EC000071ED368013BD36010BC7047937A03F0C0
:101ED00003030029E7D043F00403E4E7D36810BC10
:101EE000023BD3607047D36810BC0233D3607047A5
:101EF000D36810BC0133D360704700BFD89DFF1F6B
:101F00001F4B10B45A6E1368506819780478507AD1
:101F1000137A044201EA03011AD0937A03F003030F
:101F200009B143F0040343F008039910013B917297
:101F30000D2B0BD8DFE803F01E0719070A141E1E2D
:101F4000140A0719071ED368013BD36010BC704701
:101F5000937A03F003030029E7D043F00403E4E796
:101F6000D36810BC023BD3607047D36810BC023307
:101F7000D3607047D36810BC0133D360704700BF93
:101F8000D89DFF1F1F4B10B49A6E136850681978C4
:101F90000478507A137A044201EA03011AD0937A42
:101FA00003F0030309B143F0040343F0080399105D
:101FB000013B91720D2B0BD8DFE803F01E071907C8
:101FC0000A141E1E140A0719071ED368013BD360AA
:101FD00010BC7047937A03F003030029E7D043F065
:101FE0000403E4E7D36810BC023BD3607047D368B6
:101FF00010BC0233D3607047D36810BC0133D36088
:10200000704700BFD89DFF1F1F4B10B4DA6E1368D6
:10201000506819780478507A137A044201EA03016F
:102020001AD0937A03F0030309B143F0040343F099
:1020300008039910013B91720D2B0BD8DFE803F0D8
:102040001E0719070A141E1E140A0719071ED36853
:10205000013BD36010BC7047937A03F0030300295F
:10206000E7D043F00403E4E7D36810BC023BD3603D
:102070007047D36810BC0233D3607047D36810BC7C
:102080000133D360704700BFD89DFF1F1F4B10B4B2
:102090001A6F1368506819780478507A137A0442DA
:1020A00001EA03011AD0937A03F0030309B143F064
:1020B000040343F008039910013B91720D2B0BD8D8
:1020C000DFE803F01E0719070A141E1E140A071979
:1020D000071ED368013BD36010BC7047937A03F0AE
:1020E00003030029E7D043F00403E4E7D36810BCFE
:1020F000023BD3607047D36810BC0233D360704793
:10210000D36810BC0133D360704700BFD89DFF1F58
:102110001F4B10B45A6F1368506819780478507ABE
:10212000137A044201EA03011AD0937A03F00303FD
:1021300009B143F0040343F008039910013B917285
:102140000D2B0BD8DFE803F01E0719070A141E1E1B
:10215000140A0719071ED368013BD36010BC7047EF
:10216000937A03F003030029E7D043F00403E4E784
:10217000D36810BC023BD3607047D36810BC0233F5
:10218000D3607047D36810BC0133D360704700BF81
:10219000D89DFF1F1F4B10B49A6F136850681978B1
:1021A0000478507A137A044201EA03011AD0937A30
:1021B00003F0030309B143F0040343F0080399104B
:1021C000013B91720D2B0BD8DFE803F01E071907B6
:1021D0000A141E1E140A0719071ED368013BD36098
:1021E00010BC7047937A03F003030029E7D043F053
:1021F0000403E4E7D36810BC023BD3607047D368A4
:1022000010BC0233D3607047D36810BC0133D36075
:10221000704700BFD89DFF1F1F4B10B4DA6F1368C3
:10222000506819780478507A137A044201EA03015D
:102230001AD0937A03F0030309B143F0040343F087
:1022400008039910013B91720D2B0BD8DFE803F0C6
:102250001E0719070A141E1E140A0719071ED36841
:10226000013BD36010BC7047937A03F0030300294D
:10227000E7D043F00403E4E7D36810BC023BD3602B
:102280007047D36810BC0233D3607047D36810BC6A
:102290000133D360704700BFD89DFF1F1F4B10B4A0
:1022A0001A6A1368506819780478507A137A0442CD
:1022B00001EA03011AD0937A03F0030309B143F052
:1022C000040343F008039910013B91720D2B0BD8C6
:1022D000DFE803F01E0719070A141E1E140A071967
:1022E000071ED368013BD36010BC7047937A03F09C
:1022F00003030029E7D043F00403E4E7D36810BCEC
:10230000023BD3607047D36810BC0233D360704780
:10231000D36810BC0133D360704700BFD89DFF1F46
:102320001F4B10B45A6A1368506819780478507AB1
:10233000137A044201EA03011AD0937A03F00303EB
:1023400009B143F0040343F008039910013B917273
:102350000D2B0BD8DFE803F01E0719070A141E1E09
:10236000140A0719071ED368013BD36010BC7047DD
:10237000937A03F003030029E7D043F00403E4E772
:10238000D36810BC023BD3607047D36810BC0233E3
:10239000D3607047D36810BC0133D360704700BF6F
:1023A000D89DFF1F1F4B10B49A6A136850681978A4
:1023B0000478507A137A044201EA03011AD0937A1E
:1023C00003F0030309B143F0040343F00803991039
:1023D000013B91720D2B0BD8DFE803F01E071907A4
:1023E0000A141E1E140A0719071ED368013BD36086
:1023F00010BC7047937A03F003030029E7D043F041
:102400000403E4E7D36810BC023BD3607047D36891
:1024100010BC0233D3607047D36810BC0133D36063
:10242000704700BFD89DFF1F1F4B10B4DA6A1368B6
:10243000506819780478507A137A044201EA03014B
:102440001AD0937A03F0030309B143F0040343F075
:1024500008039910013B91720D2B0BD8DFE803F0B4
:102460001E0719070A141E1E140A0719071ED3682F
:10247000013BD36010BC7047937A03F0030300293B
:10248000E7D043F00403E4E7D36810BC023BD36019
:102490007047D36810BC0233D3607047D36810BC58
:1024A0000133D360704700BFD89DFF1F1F4B10B48E
:1024B0001A6B1368506819780478507A137A0442BA
:1024C00001EA03011AD0937A03F0030309B143F040
:1024D000040343F008039910013B91720D2B0BD8B4
:1024E000DFE803F01E0719070A141E1E140A071955
:1024F000071ED368013BD36010BC7047937A03F08A
:1025000003030029E7D043F00403E4E7D36810BCD9
:10251000023BD3607047D36810BC0233D36070476E
:10252000D36810BC0133D360704700BFD89DFF1F34
:102530001F4B10B45A6B1368506819780478507A9E
:10254000137A044201EA03011AD0937A03F00303D9
:1025500009B143F0040343F008039910013B917261
:102560000D2B0BD8DFE803F01E0719070A141E1EF7
:10257000140A0719071ED368013BD36010BC7047CB
:10258000937A03F003030029E7D043F00403E4E760
:10259000D36810BC023BD3607047D36810BC0233D1
:1025A000D3607047D36810BC0133D360704700BF5D
:1025B000D89DFF1F1F4B10B49A6B13685068197891
:1025C0000478507A137A044201EA03011AD0937A0C
:1025D00003F0030309B143F0040343F00803991027
:1025E000013B91720D2B0BD8DFE803F01E07190792
:1025F0000A141E1E140A0719071ED368013BD36074
:1026000010BC7047937A03F003030029E7D043F02E
:102610000403E4E7D36810BC023BD3607047D3687F
:1026200010BC0233D3607047D36810BC0133D36051
:10263000704700BFD89DFF1F1F4B10B4DA6B1368A3
:10264000506819780478507A137A044201EA030139
:102650001AD0937A03F0030309B143F0040343F063
:1026600008039910013B91720D2B0BD8DFE803F0A2
:102670001E0719070A141E1E140A0719071ED3681D
:10268000013BD36010BC7047937A03F00303002929
:10269000E7D043F00403E4E7D36810BC023BD36007
:1026A0007047D36810BC0233D3607047D36810BC46
:1026B0000133D360704700BFD89DFF1F1F4B10B47C
:1026C0001A691368506819780478507A137A0442AA
:1026D00001EA03011AD0937A03F0030309B143F02E
:1026E000040343F008039910013B91720D2B0BD8A2
:1026F000DFE803F01E0719070A141E1E140A071943
:10270000071ED368013BD36010BC7047937A03F077
:1027100003030029E7D043F00403E4E7D36810BCC7
:10272000023BD3607047D36810BC0233D36070475C
:10273000D36810BC0133D360704700BFD89DFF1F22
:102740001F4B10B45A691368506819780478507A8E
:10275000137A044201EA03011AD0937A03F00303C7
:1027600009B143F0040343F008039910013B91724F
:102770000D2B0BD8DFE803F01E0719070A141E1EE5
:10278000140A0719071ED368013BD36010BC7047B9
:10279000937A03F003030029E7D043F00403E4E74E
:1027A000D36810BC023BD3607047D36810BC0233BF
:1027B000D3607047D36810BC0133D360704700BF4B
:1027C000D89DFF1F1F4B10B49A6913685068197881
:1027D0000478507A137A044201EA03011AD0937AFA
:1027E00003F0030309B143F0040343F00803991015
:1027F000013B91720D2B0BD8DFE803F01E07190780
:102800000A141E1E140A0719071ED368013BD36061
:1028100010BC7047937A03F003030029E7D043F01C
:102820000403E4E7D36810BC023BD3607047D3686D
:1028300010BC0233D3607047D36810BC0133D3603F
:10284000704700BFD89DFF1F1F4B10B4DA69136893
:10285000506819780478507A137A044201EA030127
:102860001AD0937A03F0030309B143F0040343F051
:1028700008039910013B91720D2B0BD8DFE803F090
:102880001E0719070A141E1E140A0719071ED3680B
:10289000013BD36010BC7047937A03F00303002917
:1028A000E7D043F00403E4E7D36810BC023BD360F5
:1028B0007047D36810BC0233D3607047D36810BC34
:1028C0000133D360704700BFD89DFF1F1F4B10B46A
:1028D0009A681368506819780478507A137A044219
:1028E00001EA03011AD0937A03F0030309B143F01C
:1028F000040343F008039910013B91720D2B0BD890
:10290000DFE803F01E0719070A141E1E140A071930
:10291000071ED368013BD36010BC7047937A03F065
:1029200003030029E7D043F00403E4E7D36810BCB5
:10293000023BD3607047D36810BC0233D36070474A
:10294000D36810BC0133D360704700BFD89DFF1F10
:102950001F4B10B4DA681368506819780478507AFD
:10296000137A044201EA03011AD0937A03F00303B5
:1029700009B143F0040343F008039910013B91723D
:102980000D2B0BD8DFE803F01E0719070A141E1ED3
:10299000140A0719071ED368013BD36010BC7047A7
:1029A000937A03F003030029E7D043F00403E4E73C
:1029B000D36810BC023BD3607047D36810BC0233AD
:1029C000D3607047D36810BC0133D360704700BF39
:1029D000D89DFF1F1F4B10B45A68136850681978B0
:1029E0000478507A137A044201EA03011AD0937AE8
:1029F00003F0030309B143F0040343F00803991003
:102A0000013B91720D2B0BD8DFE803F01E0719076D
:102A10000A141E1E140A0719071ED368013BD3604F
:102A200010BC7047937A03F003030029E7D043F00A
:102A30000403E4E7D36810BC023BD3607047D3685B
:102A400010BC0233D3607047D36810BC0133D3602D
:102A5000704700BFD89DFF1F2DE9F04FA3B0B0F81D
:102A6000B030D0F8AC20934200AF044680F0BC8177
:102A700090F8A020002A40F0D381DA0700F1E3812A
:102A8000D4F8A820D4F8A45032F81360002E40F0F7
:102A9000AB83297A687915F0AFFBB4F8B030AE712A
:102AA0000133A4F8B03094F82830002B40F0A48112
:102AB000237E8BB994F85923002A00F07F84C44EFA
:102AC00084F86C333268BA6194F82830BA69E261EC
:102AD00013B9012384F82830A17E002900F06E810B
:102AE00094F86830BA4E002B40F0288394F86C8339
:102AF000B8F1020F00F07284B8F1010F00F03785D1
:102B000033687B6294F868307A6AE2652BB90123F6
:102B100084F86830002900F05181D4F81803AD4AD8
:102B200003681B69934240F0568415F005FF94F842
:102B30005433002800F0E282012284F85823002B4D
:102B400000F030833368BB63BB6BD4F84813D4F810
:102B50005023C4F84C335B1A934280F03D8304F554
:102B6000207807F18009D4F8185307E02B6828462D
:102B70005B699847C1B2404614F070FD2B68284647
:102B80001B6998470028F1D194F8EC32002B70D0E3
:102B9000414607F1600014F06FFD07F1600C04F589
:102BA0003C7E65460FCD4D45CEF80000CEF80410B2
:102BB000CEF80820CEF80C30AC460EF1100EF0D155
:102BC000AB882868CEF80000AEF8043094F81133D2
:102BD000002BC8D0D4F8F00219F096FF7AA3D3E9FD
:102BE000002319F0F7FF04F54875C5E90201D4F890
:102BF000F40219F089FF74A3D3E9002319F0EAFF66
:102C000094F81233C5E90401002B40F0D282724BD4
:102C1000C4F83833B4F9FE021AF0DEFB6F491AF03B
:102C20002FFC0546B4F9FC021AF0D6FB01462846F3
:102C30001AF01EFBC4F83C03B4F902031AF0CCFBF3
:102C400067491AF01DFC0546B4F900031AF0C4FBED
:102C5000014628461AF00CFB94F8041394F80C2350
:102C6000C4F84003012384F8441384F8452384F80E
:102C70005A3394F83830002B00F09E8133687B6320
:102C80007B6BE16A626B23635B1A934280F09181F4
:102C900094F84830002B00F0E9803368BB65BB6DC9
:102CA000E16B626C23645B1A934280F0DC8094F8E1
:102CB00058305BB13368FB62FB6AE16C626D23657F
:102CC0005B1A93427AD3002384F8583094F859332E
:102CD0006168002B00F0628294F85A33002B00F0F8
:102CE000BC84002384F822336D468CB0C82228238C
:102CF0008DF800208DF8013068460DF1020204F5D0
:102D0000487304F5507ED3F80090D3F80480D3F8CC
:102D100008C0D3F80CA0C2F80CA010337345C2F859
:102D20000090C2F80480C2F808C002F11002EAD193
:102D3000D3F800E05B685360C2F800E001F10C08D2
:102D40004FF0000C5FFA8CF2082312F0010F18BF4D
:102D500091F80CE003F1FF3318BF82EA0E0213F082
:102D6000FF034FEA5202F0D10CF1010CBCF5807F59
:102D700008F8012FE6D100F1010E00F1290C1EF830
:102D8000012F53400B44F4455B7BF8D180F82A3087
:102D9000D1F81021134913685B688B4240F0168309
:102DA0002B2116F0BDFC3368BB6294F85830BA6A28
:102DB000E264AD4613B9012384F858308C37BD4620
:102DC000BDE8F08FAFF30080000000A0F2D77A3E9C
:102DD000989EFF1F49050000003C1CC66F12833AF5
:102DE0000AD7233C410500000023A0F8B03094F836
:102DF0002830002B3FF45CAECD4EE16933683B6177
:102E00003B69626A23625B1A934207D3002384F80A
:102E10002830237E002B7FF45FAE4BE6A17E79E65F
:102E2000C34ED0F8940032683A623A6AD4F89C10E3
:102E3000C4F89820121A8A42D9D3002284F8A0201C
:102E4000DA077FF51DAEBA4ED4F8A820316832F803
:102E50001320F961F969C4F89C200122C4F8941088
:102E600084F8A0201CE6002384F84830D4F85001F0
:102E7000656803689B699847002800F07D81D4F855
:102E8000508194F84C31D8F838E0D8F83C00D8F8A4
:102E900014B0D8F818A0D8F85820D8F85C10D8F892
:102EA0001C90D8F848C0C7F80CE0B860D8F84CE0DF
:102EB000D8F850007B60D8F84030D8F86080C4F86B
:102EC0009081E8468EB0C4F864B1C4F868A1C4F833
:102ED00074E1C4F87801D7F80CE0B868C4F8800150
:102EE0004FF0C80B4FF0340AC4F88431C4F888217D
:102EF000C4F88C11C4F86C91C4F870C1C4F87CE1BA
:102F00008DF800B08DF801A03B7984F861316946F5
:102F10000DF1020204F5B07304F5C870D3F8009007
:102F2000D3F804C0D3F808E0D3F80CA0C2F80CA082
:102F300010338342C2F80090C2F804C0C2F808E01F
:102F400002F11002EAD11B68136005F10C0C4FF07E
:102F5000000E5FFA8EF20823D00748BF287B03F1EA
:102F6000FF3348BF424013F0FF034FEA5202F3D150
:102F70000EF1010EBEF5807F0CF8012FE9D1481C3F
:102F800001F1350E10F8012F53402B4486455B7B31
:102F9000F8D181F83630D5F81001664A03685B68CD
:102FA000934240F05F830846372116F0B9FBC546CF
:102FB000E7E0002384F8383094F8CC306568002BC3
:102FC00040F0CA8094F8D10014F076FE19F09CFD10
:102FD000D4E9362319F0FEFD0022574B19F0FAFD13
:102FE0001AF0D0F833687B6494F8CC307A6CC4F86B
:102FF000C02013B9012384F8CC3000234FF0690EB0
:1030000094F8BC1087F858E007F1880287F8591047
:10301000A7F85C0087F85A3052F8300DC7F8620004
:103020009288A7F86620C8210622184687F8601003
:1030300087F86120E84605F10C0EC2B20823D107DB
:1030400048BF297B03F1FF3348BF4A4013F0FF0319
:103050004FEA5202F3D10130B0F5807F0EF8012F14
:10306000EBD107F1610107F1670011F8012F53401F
:103070002B4488425B7BF8D187F86830D5F8100183
:103080002C4A03685B68934240F0E282092107F111
:10309000600016F045FB6568C54694F8FC30002BCF
:1030A00000F01E813368BB64BB6CD4F8F010D4F818
:1030B000F820C4F8F4305B1A934280F00E8194F843
:1030C0002C31002B00F09C8033683B653B6DD4F8BD
:1030D0002011D4F82821C4F824315B1A934280F0DF
:1030E0008C8033683B6694F838303A6EE262002B8D
:1030F0007FF4CEAD012384F83830C9E5002B7FF48E
:1031000021AD94F85833002B4CD184F859333368EF
:10311000FB63FA6B94F85433C4F84823002284F814
:103120005A23002B7FF41BAD012384F8543316E59A
:10313000989EFF1F4105000000408F4033687B616F
:103140007B69E06D626E23661B1A9342FFF4E5AC67
:10315000002384F86830C9E433683B643B6CD4F8DE
:10316000C010D4F8C820C4F8C4305B1A934294D37A
:10317000002384F8CC3025E794F85C31002B00F074
:10318000A38133683B6394F848303A6BE263002BC9
:103190007FF48DAD012384F8483088E5022384F85C
:1031A0002233A1E50122002384F8592384F85833FF
:1031B000ADE7B4F9FA021AF00FF9BF491AF060F955
:1031C0000546B4F9F8021AF007F9014628461AF044
:1031D0004FF8C4F838031DE5002384F8543394F8FD
:1031E0005833002B91D0DDE7E979687915F004F8C0
:1031F0000123AB71B4F8B03052E4002384F82C31D1
:1032000094F8310114F058FD04F58C7819F07CFC29
:10321000D8E9082319F0DEFC0022A84B19F0DAFCEB
:1032200019F0B0FF33687B6594F82C317A6DC4F8DF
:10323000202113B9012384F82C3100234FF0690EAB
:1032400094F81C1187F858E007F1880287F85910A4
:10325000A7F85C0087F85A3052F8300DC7F86200C2
:103260009288A7F86620C8210622184687F86010C1
:1032700087F86120E84605F10C0EC2B20823D10799
:1032800048BF297B03F1FF3348BF4A4013F0FF03D7
:103290004FEA5202F3D10130B0F5807F0EF8012FD2
:1032A000EBD107F1610107F1670011F8012F5340DD
:1032B0002B4488425B7BF8D187F86830D5F8100141
:1032C0007F4A03685B68934240F0F080092107F170
:1032D000600016F025FAC54603E7002384F8FC30A9
:1032E00094F8010114F0E8FC04F5847819F00CFC62
:1032F000D8E9002319F06EFC0022704B19F06AFC2B
:1033000019F040FF3368FB6494F8FC30FA6CC4F8A1
:10331000F02013B9012384F8FC3000234FF0690E2C
:1033200094F8EC1087F858E007F1880287F85910F4
:10333000A7F85C0087F85A3052F8300DC7F86200E1
:103340009288A7F86620C8210622184687F86010E0
:1033500087F86120E84605F10C0EC2B20823D107B8
:1033600048BF297B03F1FF3348BF4A4013F0FF03F6
:103370004FEA5202F3D10130B0F5807F0EF8012FF1
:10338000EBD107F1610107F1670011F8012F5340FC
:103390002B4488425B7BF8D187F86830D5F8100160
:1033A000474A03685B68934240F0DC80092107F1DB
:1033B000600016F0B5F9C546656880E6414904F13C
:1033C000080016F0FFFD0223FFF779BB0146104607
:1033D0002B229847E7E49847FFF7A9BB07F1880934
:1033E0000023F922A16887F8613007F1630087F8AC
:1033F00062306D4609F8282D1BF010FC8AB0C822F7
:103400002223D4F804E087F881808DF800208DF81D
:103410000130EC460DF1020A07F1800BC846B8E80E
:103420000F00D845CAF80000CAF80410CAF80820EE
:10343000CAF80C30C1460AF1100AEFD1B8F80030D2
:10344000AAF800300EF10C080020C2B20823D10700
:1034500048BF9EF80C1003F1FF3348BF4A4013F0F9
:10346000FF034FEA5202F2D10130B0F5807F08F835
:10347000012FEAD10CF101010CF1230011F8012F09
:103480005340734488425B7BF8D18CF82430DEF8DB
:1034900010010B4A03685B68934240F0EB80604682
:1034A000252116F03DF9AD46A17EC6E0092207F1BF
:1034B00060019847C54614E60AD7233C00408F4078
:1034C000410500006C540200E8468EB00223C8217A
:1034D00034228DF800108DF8012084F862310DEB54
:1034E0000302694604F5B07304F5C870D3F8009080
:1034F000D3F804C0D3F808E0D3F80CA0C2F80CA0AD
:1035000010338342C2F80090C2F804C0C2F808E049
:1035100002F11002EAD11B68136005F10C0C0020C7
:10352000C2B2082312F0010F18BF95F80CE003F1A6
:10353000FF3318BF82EA0E0213F0FF034FEA520274
:10354000F0D10130B0F5807F0CF8012FE8D1481C94
:1035500001F1350E10F8012F53402B4486455B7B5B
:10356000F8D116E5092207F16001984723E707F132
:1035700088090023F922A16887F8613007F1630008
:1035800087F862306D4609F8282D1BF047FB8AB09A
:10359000C8222223D4F804E087F881808DF8002027
:1035A0008DF80130EC460DF1020A07F1800BC84698
:1035B000B8E80F00D845CAF80000CAF80410CAF8E5
:1035C0000820CAF80C30C1460AF1100AEFD1B8F849
:1035D0000030AAF800300EF10C080020C2B2082317
:1035E000D10748BF9EF80C1003F1FF3348BF4A4093
:1035F00013F0FF034FEA5202F2D10130B0F5807FA1
:1036000008F8012FEAD10CF101010CF1230011F8A7
:10361000012F5340734488425B7BF8D18CF82430EF
:10362000DEF81001154A03685B6893421ED16046BC
:10363000252116F075F8A17EAD4633687B6294F8BB
:1036400068307A6AE265002B3FF461AAFFF762BA3C
:10365000092207F1600198471DE5012384F8223310
:10366000FFF742BB37229847C5468AE561462522C7
:103670009847E0E761462522984714E74105000096
:103680002DE9F04FA5B0B0F8B030D0F8AC2093429F
:1036900000AF044654D290F8A020002A40F0BF8228
:1036A000DA0700F1D082D4F8A820D4F8A45032F878
:1036B0001360002E40F0F782297A687914F09CFD9F
:1036C000B4F8B030AE710133A4F8B03094F8910280
:1036D00014F098FD00283CD184F8E902E07694F8D3
:1036E00028306BB14C4EE1693368BB61BB69626ADB
:1036F00023625B1A9342C0F0B682002384F828301C
:10370000237E8BB994F87922002A00F0E883424E98
:1037100084F8E83232683A6294F828303A6AE26112
:1037200013B9012384F82830A27EEAB9B4F8A612AE
:1037300004F5387013F0DEF99437BD46BDE8F08F1C
:103740000023A0F8B03094F8910214F05BFD00283B
:10375000C2D094F8E9320133DBB2052B84F8E932A8
:10376000BDD90123E376BAE794F858302A4E002BEE
:1037700040F07E8294F8E882B8F1020F00F01A85DA
:10378000B8F1010F00F093853368FB6294F858306C
:10379000F96AE16423B9012384F85830002AC5D0BE
:1037A000D4F838021D4A03681B69934240F0F9843B
:1037B00015F0C2F894F87432002840F0678273B1B3
:1037C00033683B643B6CD4F86812D4F87022C4F8B8
:1037D0006C325B1A934217D3002384F8743294F846
:1037E0007832002B40F0588284F8793233687B6459
:1037F0007A6C94F87432C4F86822002284F87A2231
:1038000013B9012384F8743204F5D07807F18809DC
:10381000D4F838520CE000BF989EFF1F4905000005
:103820002B6828465B699847C1B2404613F016FFE3
:103830002B6828461B6998470028F1D194F80C3270
:10384000002B7FD0414607F1680013F015FF07F108
:10385000680C04F5047E65460FCD4D45CEF800009A
:10386000CEF80410CEF80820CEF80C30AC460EF19D
:10387000100EF0D1AB882868CEF80000AEF8043006
:1038800094F83132002BC3D0D4F8100219F03CF96F
:10389000C5A3D3E9002319F09DF904F51075C5E916
:1038A0000201D4F8140219F02FF9BFA3D3E90023C1
:1038B00019F090F994F83232C5E90401002B00F0B8
:1038C0006B84B4F91A0219F087FDB94919F0D8FDD3
:1038D0000546B4F9180219F07FFD0146284619F093
:1038E000C7FCC4F85802B4F91E0219F075FDB149BD
:1038F00019F0C6FD0546B4F91C0219F06DFD01462C
:10390000284619F0B5FCC4F85C02B4F9220219F09B
:1039100063FDA74919F0B4FD0546B4F9200219F07A
:103920005BFD0146284619F0A3FC94F8241294F894
:103930002C22C4F86002012384F8641284F8652202
:1039400084F87A3294F838305BB13368FB63FB6BF0
:10395000E16A626B23635B1A934243D3002384F8CA
:10396000383094F8CC306568002B00F0CA82336898
:10397000BB64BB6CD4F8C010D4F8C820C4F8C43001
:103980005B1A934280F0BA8294F8FC30002B00F06E
:10399000968333683B653B6DD4F8F010D4F8F8207B
:1039A000C4F8F4305B1A934280F0868394F82C318B
:1039B000002B00F014833368BB65BB6DD4F8201175
:1039C000D4F82821C4F824315B1A934280F0048390
:1039D0003368BB6394F83830BA6BE26213B90123E1
:1039E00084F8383094F8483063B133687B637B6B7C
:1039F000E16B626C23645B1A9342C0F0DD810023AB
:103A000084F848304FF00009682394F8910287F851
:103A1000629087F86030656814F0F4FBB0EB090041
:103A200018BF012094F8903287F8613007F19008B0
:103A300087F8630058F8300DC7F86A00C8220423DD
:103A4000484605F10C0E87F8682087F86930E9468A
:103A5000C2B20823D10748BF297B03F1FF3348BF17
:103A60004A4013F0FF034FEA5202F3D10130B0F5A0
:103A7000807F0EF8012FEBD197F86A0097F86B1052
:103A800097F86CE097F86D302844427B5140294408
:103A90004A7B8EEA02022A44527B53402B44464A18
:103AA0005B7B87F86E30D5F8100103685B68934242
:103AB00040F0F28307F16803184607217B6115F097
:103AC0002FFED4F8500165680368CD469B6998477E
:103AD000002800F0F180D4F8503194F84C213A607D
:103AE000DA69196CD3F814903A619A6CD3F818C05B
:103AF000986DD3F85CE0D3F838A0D3F83CB0F96007
:103B0000BA60D96C1A6DC7F804D01B6EC4F8649102
:103B10008EB0D7F81090C4F89031C4F86C91C823D7
:103B2000D7F80890C4F87411F968C4F868C1C4F8EB
:103B30007821C4F884114FF0340CC4F87091C4F8A3
:103B40007CA1C4F880B1C4F888018DF800303B78BE
:103B500084F86131C4F88CE18DF801C069460DF13B
:103B6000020204F5B07304F5C870D3F80090D3F8DE
:103B700004C0D3F808E0D3F80CA0C2F80CA01033AE
:103B80008342C2F80090C2F804C0C2F808E002F113
:103B90001002EAD11B68136005F10C0E0020C2B2BE
:103BA00008230BE0AFF30080000000A0F2D77A3EBC
:103BB0000AD7233C6F12833A4105000012F0010F2F
:103BC00018BF95F80CC003F1FF3318BF82EA0C024E
:103BD00013F0FF034FEA5202F0D10130B0F5807FBD
:103BE0000EF8012FDBD14A1C01F1350012F801EF6C
:103BF00083EA0E032B4490425B7BF7D181F8363089
:103C0000D5F81001B94A03685B68934240F03C84E0
:103C10000846372115F084FDD7F804D051E0B44EA2
:103C2000D0F894003268BA62BA6AD4F89C10C4F82A
:103C30009820121A8A42FFF486AD002284F8A02050
:103C4000DA077FF530ADAA4ED4F8A820316832F8F3
:103C500013207962796AC4F89C200122C4F8941078
:103C600084F8A0202FE5A27E002A3FF45FAD97E5FF
:103C70003368FB61FB69E06C616D23651B1A8B4245
:103C8000FFF48EAD002384F8583073E5012284F8E8
:103C90007822002B7FF494AD0122002384F879224E
:103CA00084F87832A2E5E979687914F0A5FA01235D
:103CB000AB71B4F8B03006E594F85C31002B00F03D
:103CC0007A83692294F8C43294F8C90287F8602094
:103CD0004FF0000987F86130656887F8629013F04B
:103CE000EBFF04F5307A3861DAE9040119F06AFA79
:103CF0003B69834698B219F06FFB0146584619F0AC
:103D0000BFFB8346DAE9060119F05CFA0146584622
:103D100019F0AEFA774919F0B3FB19F077FDA7F85F
:103D20006400D8F80000B8F80410C7F86A00C82288
:103D30000623A7F86E1005F10C0087F8682087F8B5
:103D40006930E8465FFA89F20823D10748BF297B2A
:103D500003F1FF3348BF4A4013F0FF034FEA52021A
:103D6000F3D109F10109B9F5807F00F8012FE9D1FC
:103D700007F1690107F16F0011F8012F53402B443F
:103D800088425B7BF8D187F87030D5F81001574A2C
:103D900003685B68934240F0F2827869092115F06C
:103DA000BFFC3368BB6694F84830BA6EE263C54620
:103DB00013B9012384F8483094F868305BB1336854
:103DC0003B663B6EE16D626E23665B1A93427AD36B
:103DD000002384F8683094F879326168002B00F091
:103DE000628294F87A32002B00F04283002384F838
:103DF00042326D468CB0C82228238DF800208DF801
:103E0000013068460DF1020204F5107304F5187EC6
:103E1000D3F80090D3F80480D3F808C0D3F80CA0EE
:103E2000C2F80CA010337345C2F80090C2F80480A9
:103E3000C2F808C002F11002EAD1D3F800E05B68D2
:103E40005360C2F800E001F10C084FF0000C5FFA7B
:103E50008CF2082312F0010F18BF91F80CE003F167
:103E6000FF3318BF82EA0E0213F0FF034FEA52023B
:103E7000F0D10CF1010CBCF5807F08F8012FE6D1E0
:103E800000F1010E00F1290C1EF8012F53400B44E4
:103E9000F4455B7BF8D180F82A30D1F81021134922
:103EA00013685B688B4240F081822B2115F038FC4F
:103EB00033683B6394F868303A6BE265AD4613B9FA
:103EC000012384F86830A37E002B3FF42FACE37EFF
:103ED000002B7FF42BAC9437BD46BDE8F08F06492C
:103EE00004F1080016F06EF8022310E4410500000A
:103EF000989EFF1F00007A446C540200002384F84F
:103F0000CC3094F8D10013F0D7FE18F0FDFDD4E9C1
:103F1000362318F05FFE0022A34B18F05BFE19F069
:103F200031F93368FB6494F8CC30FA6CC4F8C020E3
:103F300013B9012384F8CC3000234FF0690E94F8B4
:103F4000BC1087F860E007F1900287F86110A7F8CD
:103F5000640087F8623052F8300DC7F86A00928822
:103F6000A7F86E20C8210622184687F8681087F83F
:103F70006920E84605F10C0EC2B20823D10748BFFC
:103F8000297B03F1FF3348BF4A4013F0FF034FEA98
:103F90005202F3D10130B0F5807F0EF8012FEBD142
:103FA00007F1690107F16F0011F8012F53402B440D
:103FB00088425B7BF8D187F87030D5F810017B4AD6
:103FC00003685B68934200F0EB81092207F1680106
:103FD0009847C5466568D7E4002384F82C3194F8E7
:103FE000310113F069FE04F58C7818F08DFDD8E9E5
:103FF000082318F0EFFD00226B4B18F0EBFD19F0D1
:10400000C1F83368FB6594F82C31FA6DC4F82021AF
:1040100013B9012384F82C3100234FF0690E94F872
:104020001C1187F860E007F1900287F86110A7F88B
:10403000640087F8623052F8300DC7F86A00928841
:10404000A7F86E20C8210622184687F8681087F85E
:104050006920E84605F10C0EC2B20823D10748BF1B
:10406000297B03F1FF3348BF4A4013F0FF034FEAB7
:104070005202F3D10130B0F5807F0EF8012FEBD161
:1040800007F1690107F16F0011F8012F53402B442C
:1040900088425B7BF8D187F87030D5F81001434A2D
:1040A00003685B68934240F07481092107F168005E
:1040B00015F036FBC5468BE4002384F8FC3094F8F9
:1040C000010113F0F9FD04F5847818F01DFDD8E91D
:1040D000002318F07FFD0022334B18F07BFD19F010
:1040E00051F833687B6594F8FC307A6DC4F8F020A1
:1040F00013B9012384F8FC3000234FF0690E94F8C3
:10410000EC1087F860E007F1900287F86110A7F8DB
:10411000640087F8623052F8300DC7F86A00928860
:10412000A7F86E20C8210622184687F8681087F87D
:104130006920E84605F10C0EC2B20823D10748BF3A
:10414000297B03F1FF3348BF4A4013F0FF034FEAD6
:104150005202F3D10130B0F5807F0EF8012FEBD180
:1041600007F1690107F16F0011F8012F53402B444B
:1041700088425B7BF8D187F87030D5F810010B4A84
:1041800003685B68934200F0FE80092207F1680132
:104190009847C546656809E4054BC4F85832FFF7EF
:1041A000A2BB9847FFF706BB00408F4041050000C7
:1041B000003C1CC607F190090023F922A16887F88A
:1041C000693007F16B0087F86A306D4609F8282DD1
:1041D0001AF024FD8AB0C8222223D4F804E087F81C
:1041E00089808DF800208DF80130EC460DF1020A2F
:1041F00007F1880BC846B8E80F00D845CAF8000098
:10420000CAF80410CAF80820CAF80C30C1460AF1EE
:10421000100AEFD1B8F80030AAF800300EF10C08FF
:104220000020C2B20823D10748BF9EF80C1003F14A
:10423000FF3348BF4A4013F0FF034FEA5202F2D166
:104240000130B0F5807F08F8012FEAD10CF10101AF
:104250000CF1230011F8012F5340734488425B7B1B
:10426000F8D18CF82430DEF810018B4A03685B68C3
:10427000934240F001816046252115F051FAA27E5B
:10428000AD463368FB6294F85830F96AE164002B5C
:104290003FF481AAFFF782BA07F168027A611146FA
:1042A000072298470DE4022384F84232A1E507F182
:1042B00090090023F922A16887F8693007F16B00A3
:1042C00087F86A306D4609F8282D1AF0A7FC8AB0E5
:1042D000C8222223D4F804E087F889808DF80020D2
:1042E0008DF80130EC460DF1020A07F1880BC84643
:1042F000B8E80F00D845CAF80000CAF80410CAF898
:104300000820CAF80C30C1460AF1100AEFD1B8F8FB
:104310000030AAF800300EF10C080020C2B20823C9
:10432000D10748BF9EF80C1003F1FF3348BF4A4045
:1043300013F0FF034FEA5202F2D10130B0F5807F53
:1043400008F8012FEAD10CF101010CF1230011F85A
:10435000012F5340734488425B7BF8D18CF82430A2
:10436000DEF810014C4A03685B68934240F0888095
:104370006046252115F0D4F9AD46A27E81E7796922
:10438000092298470DE5092107F1680015F0C8F9E1
:10439000FFE6092207F168019847C546FFF718BBF9
:1043A000092107F1680015F0BBF912E60146104635
:1043B0002B2298477CE5E9468EB00223C82134229F
:1043C0008DF800108DF8012084F862310DEB0302A6
:1043D000694604F5B07304F5C870D3F800A0D3F8AB
:1043E00004C0D3F808E0D3F80CB0C2F80CB0103316
:1043F0008342C2F800A0C2F804C0C2F808E002F18B
:104400001002EAD11B68136005F10C0E0020C2B245
:10441000082312F0010F18BF95F80CC003F1FF3309
:1044200018BF82EA0C0213F0FF034FEA5202F0D1E8
:104430000130B0F5807F0EF8012FE8D14A1C01F160
:10444000350012F801EF83EA0E032B4490425B7BA8
:10445000F7D181F83630D5F810010F4A03685B6850
:10446000934215D10846372115F05AF9CD4628E474
:10447000012384F84232BCE4614625229847FEE6D7
:1044800061462522984777E737229847FFF7C4BB54
:1044900037229847CD4614E44105000070B5836982
:1044A00004791D7C86B000226626012D8DF805401A
:1044B0008DF806200C4602928DF8046049D972B638
:1044C000DA6862B690F83430029213B902238DF89C
:1044D000063001AB03CBC8220823CDF80E00CDF87F
:1044E00012108DF80C208DF80D3004F10C05002011
:1044F000C2B20823D10748BF217B03F1FF3348BF75
:104500004A4013F0FF034FEA5202F3D10130B0F5F5
:10451000807F05F8012FEBD10DF10D010DF1150094
:1045200011F8012F5340234488425B7BF8D1D4F823
:1045300010018DF8163003682F4A5B68934247D10B
:104540000B2103A815F0ECF8003018BF012006B0CD
:1045500070BD72B693E8240011782E785D7A1A7ACD
:104560002E4201EA02012BD09A7A02F0030209B12D
:1045700042F0040242F008029110013A99720D2AA9
:104580009ED801A151F822F0F1450000E945000054
:10459000E1450000E9450000C1440000D9450000A4
:1045A000F1450000F1450000D9450000C14400007C
:1045B000E9450000E1450000E9450000F145000043
:1045C0009A7A02F003020029D6D042F00402D3E71F
:1045D0000B2203A99847B7E7DA68023ADA6070E776
:1045E000DA680232DA606CE7DA68013ADA6068E7C2
:1045F000DA680132DA6064E741050000FFFFFFFF7F
:104600002DE9F04FAFB0B0F8C030D0F8BC209342E5
:1046100000AF04461CD290F8B020002A40F0C982B6
:10462000DE0700F1DA82D4F8B820D4F8B45032F8BA
:104630001360002E00F03887E979687913F0DCFD0B
:104640000123AB71B4F8C0300133A4F8C03002E0EC
:104650000023A0F8C03094F8443494F845249A42DA
:1046600008D00022A4F8502184F84021A4F80821A1
:1046700084F8F820012B00F01986C0F0D785022BB2
:1046800000F0BB8294F8282084F845346AB12E4E9D
:10469000E16933687B617B69626A23625B1A9342DA
:1046A000C0F08582002384F82830237E002B00F0A0
:1046B0000487A17E002900F0768294F87830224E9B
:1046C000002B40F0638694F84484B8F1020F01F0A7
:1046D000EB80B8F1010F01F059813368BB6494F8A5
:1046E0007830BA6CE2662BB9012384F8783000295F
:1046F00000F05982D4F8D803144A03681B69934226
:1047000041F06B8014F018F994F81434002800F08C
:104710002286012284F81824002B00F0A186336839
:10472000BB66BB6ED4F80814D4F81024C4F80C345B
:104730005B1A934280F09B8604F5507807F1B0092C
:10474000D4F8D8530CE000BF989EFF1F4905000025
:104750002B6828465B699847C1B2404612F07EFF3D
:104760002B6828461B6998470028F1D194F8AC3390
:10477000002B7FD0414607F1900012F07DFF07F13A
:10478000900C04F56C7E65460FCD4D45CEF80000CB
:10479000CEF80410CEF80820CEF80C30AC460EF15E
:1047A000100EF0D1AB882868CEF80000AEF80430C7
:1047B00094F8D133002BC3D0D4F8B00318F0A4F987
:1047C00095A3D3E9002318F005FA04F57875C5E937
:1047D0000201D4F8B40318F097F98FA3D3E90023AA
:1047E00018F0F8F994F8D233C5E90401002B00F071
:1047F0004786B4F9BA0318F0EFFD894918F040FE76
:104800000546B4F9B80318F0E7FD0146284618F04C
:104810002FFDC4F8F803B4F9BE0318F0DDFD81499B
:1048200018F02EFE0546B4F9BC0318F0D5FD01467C
:10483000284618F01DFDC4F8FC03B4F9C20318F0B3
:10484000CBFD774918F01CFE0546B4F9C00318F0FB
:10485000C3FD0146284618F00BFD94F8C41394F8E4
:10486000CC23C4F80004012384F8041484F805243C
:1048700084F81A3494F83830002B00F08A833368B7
:104880007B667B6EE16A626B23635B1A934280F006
:104890007D8394F84830002B00F025843368FB6555
:1048A000FB6DE16B626C23645B1A934280F01884A9
:1048B00094F85830002B00F0DE8133687B657B6D07
:1048C000E16C626D23655B1A934280F0D18194F8AC
:1048D000683063B13368FB64FB6CE16D626E236624
:1048E0005B1A9342C0F05F81002384F868306A222B
:1048F00094F8383294F83D0287F88820002187F830
:10490000893087F88A10656813F0D6F98146B4F8C3
:10491000440218F061FD0146D4F8480218F064FE24
:10492000D4F8401218F0ACFD8046484618F054FD0B
:104930000146404618F0A4FD3B4918F0A1FD18F0CF
:1049400065FFA7F88C0094F83D0213F0B5F9814695
:10495000B4F8440218F040FD0146D4F8480218F0BB
:1049600043FED4F8401218F08BFD8046484618F0FC
:1049700033FD0146404618F083FD804694F8550209
:1049800018F02AFD0146404618F018FF00284FD1C4
:1049900094F8560218F020FD0146404618F02CFF0E
:1049A000002845D194F83D0213F086F98246B4F808
:1049B0004402D4F8508218F00FFD0146D4F84802A2
:1049C00018F012FED4F8401218F05AFD81465046F5
:1049D00018F002FD0146484618F052FD814694F851
:1049E000540218F0F9FC114918F0FEFD41468246C8
:1049F000D4F84C0218F03AFC0146504618F040FD3D
:104A0000414618F035FC0146484618F0E1FE90B1E9
:104A1000012387F88A300EE0000000A0F2D77A3E2A
:104A20000AD7233C6F12833A00007A440000C84240
:104A3000022387F88A3007F1B803C82253F8300DF3
:104A4000C7F892009B88A7F89630062387F8902035
:104A500087F89130E84605F10C0E0020C2B2082319
:104A6000D10748BF297B03F1FF3348BF4A4013F009
:104A7000FF034FEA5202F3D10130B0F5807F0EF808
:104A8000012FEBD107F1910107F1970011F8012FE8
:104A900053402B4488425B7BF8D187F89830D5F897
:104AA0001001714D03685B68AB4240F099860921A3
:104AB00007F1900014F034FE94F81934D4F804E0AF
:104AC000C546002B00F0CB8694F81A34002B01F079
:104AD0004980002384F8E233E8468CB0C8222823BA
:104AE0008DF800208DF8013069460DF1020204F5C1
:104AF000787304F58060D3F800A0D3F80490D3F85D
:104B000008C0D3F80CB0C2F80CB010338342C2F81E
:104B100000A0C2F80490C2F808C002F11002EAD165
:104B200018685B68536010600EF10C094FF0000CC0
:104B30005FFA8CF20823D00748BF9EF80C0003F1FF
:104B4000FF3348BF424013F0FF034FEA5202F2D155
:104B50000CF1010CBCF5807F09F8012FE8D1481C4D
:104B600001F1290C10F8012F5340734484455B7BFD
:104B7000F8D181F82A30DEF8100103685B68AB4297
:104B800040F0278608462B2114F0CAFD3368C7F889
:104B9000903094F86830D7F89020E265C54613B994
:104BA000012384F86830BC37BD46BDE8F08FA17E94
:104BB0009DE52E4ED0F8A40032687A627A6AD4F865
:104BC000AC10C4F8A820121A8A42FFF444AD0022A7
:104BD000DE0784F8B0207FF526AD244ED4F8B82047
:104BE000316832F813203962396AC4F8AC200122E6
:104BF000C4F8A41084F8B02026E594F8281494F89A
:104C0000250413F0F9FA94F80A21002384F82634D5
:104C1000002A00F0DB83D4F8001184F80A3104F193
:104C2000C4028A4200F0D2830421A4F8083184F837
:104C3000F830C4F80021C4F80411D4F80021D4F8E5
:104C4000FC5032F81360002E40F09187297A687981
:104C500013F0D2FAAE71B4F8082194F8443401325A
:104C6000A4F808210EE500BF41050000989EFF1F33
:104C7000002384F85830D4F8703294F85C22197C00
:104C800087F8892066200022012987F88A20C7F842
:104C90008C2087F88800656840F2BB8772B6DA68B6
:104CA00062B694F88C32C7F88C2013B9022387F8C7
:104CB0008A3007F1880303CBC8220823C7F8920083
:104CC000C7F8961087F8902087F89130E94605F1EB
:104CD0000C0E0020C2B20823D10748BF297B03F184
:104CE000FF3348BF4A4013F0FF034FEA5202F3D1AB
:104CF0000130B0F5807F0EF8012FEBD107F1910163
:104D000007F1990A11F8012F53402B448A455B7B28
:104D1000F8D187F89A30D5F810019B4D03685B688D
:104D2000AB4207F1900840F02C8640460B2114F06E
:104D3000F7FCD4F8A80294F89432017C87F8893003
:104D40004FF0660E00230129CD46626887F88A304D
:104D5000C7F88C3087F888E041F2228072B6C368C9
:104D600062B694F8C412C7F88C3011B9022387F8E0
:104D70008A3007F1880303CB4FF0C80E082387F869
:104D800090E0C7F89200C7F8961087F89130E9468E
:104D900002F10C0C4FF0000E5FFA8EF10823C807E9
:104DA00048BF107B03F1FF3348BF414013F0FF03BE
:104DB0004FEA5101F3D10EF1010EBEF5807F0CF8E0
:104DC000011FE9D107F1910010F8011F4B40134476
:104DD00082455B7BF8D187F89A30D2F810010368DE
:104DE0005B68AB4240F0C8850B21404614F098FC4C
:104DF000D4F8E00294F8CC32017C87F889304FF087
:104E0000660E00230129CD46626887F88A30C7F80C
:104E10008C3087F888E040F27F8772B6C36862B64C
:104E200094F8FC12C7F88C3011B9022387F88A3045
:104E300007F1880303CB4FF0C80E082387F890E0F2
:104E4000C7F89200C7F8961087F89130E94602F14A
:104E50000C0C4FF0000E5FFA8EF10823C80748BF14
:104E6000107B03F1FF3348BF414013F0FF034FEACB
:104E70005101F3D10EF1010EBEF5807F0CF8011F38
:104E8000E9D107F1910010F8011F4B40134482450E
:104E90005B7BF8D187F89A30D2F8100103685B6821
:104EA000AB4240F0EA840B21404614F039FCD4F8C0
:104EB000180394F80433017C87F889304FF0660EAC
:104EC00000230129CD46626887F88A30C7F88C3004
:104ED00087F888E040F2E48672B6C36862B694F858
:104EE0003413C7F88C3011B9022387F88A3007F1E0
:104EF000880303CB4FF0C80E082387F890E0C7F86B
:104F00009200C7F8961087F89130E94602F10C0C30
:104F10004FF0000E5FFA8EF10823C80748BF107BE0
:104F200003F1FF3348BF414013F0FF034FEA510143
:104F3000F3D10EF1010EBEF5807F0CF8011FE9D10F
:104F400007F1910010F8011F4B40134482455B7B31
:104F5000F8D187F89A30D2F8100103685B68AB4249
:104F600040F0908440460B2114F0DAFB33683B6537
:104F700094F858303A6DE264CD46002B7FF4A7AC2C
:104F8000012384F85830A2E441050000002384F88E
:104F9000383094F86C316568002B40F0068294F844
:104FA000710112F089FE04F5AC7817F0ADFDD8E977
:104FB000082317F00FFE0022BA4B17F00BFE18F073
:104FC000E1F833687B6794F86C317A6FC4F860213C
:104FD00013B9012384F86C3100234FF0690E94F863
:104FE0005C1187F888E007F1B80287F88910A7F804
:104FF0008C0087F88A3052F8300DC7F892009288FA
:10500000A7F89620C8210622184687F8901087F83E
:105010009120E84605F10C0EC2B20823D10748BF23
:10502000297B03F1FF3348BF4A4013F0FF034FEAE7
:105030005202F3D10130B0F5807F0EF8012FEBD191
:1050400007F1910107F1970011F8012F53402B440C
:1050500088425B7BF8D187F89830D5F81001924AE6
:1050600003685B68934240F06B85092107F190006B
:1050700014F056FB6568C54694F89C31002B00F08F
:1050800024833368BB67BB6FD4F89011D4F89821A0
:10509000C4F894315B1A934280F0148394F8CC31B5
:1050A000002B00F09C823368C7F88030D7F880303E
:1050B000D4F8C011D4F8C821C4F8C4315B1A9342A3
:1050C00080F08A8233683B6694F838303A6EE26248
:1050D000002B7FF4DEAB012384F83830FFF7D9BB17
:1050E000002384F84830D4F8F001656803689B69B0
:1050F0009847002800F0A181D4F8F08194F8EC31B1
:10510000D8F838E0D8F83C00D8F814B0D8F818A08F
:10511000D8F85820D8F85C10D8F81C90D8F848C0B7
:10512000C7F80CE0B860D8F84CE0D8F850007B60C5
:10513000D8F84030D8F86080C4F83082E8468EB0A5
:10514000C4F804B2C4F808A2C4F814E2C4F81802FF
:10515000D7F80CE0B868C4F820024FF0C80B4FF045
:10516000340AC4F82432C4F82822C4F82C12C4F833
:105170000C92C4F810C2C4F81CE28DF800B08DF88F
:1051800001A03B7984F8013269460DF1020204F571
:10519000007304F50C70D3F80090D3F804C0D3F872
:1051A00008E0D3F80CA0C2F80CA010338342C2F878
:1051B0000090C2F804C0C2F808E002F11002EAD17F
:1051C0001B68136005F10C0C4FF0000E5FFA8EF2B5
:1051D0000823D00748BF287B03F1FF3348BF424074
:1051E00013F0FF034FEA5202F3D10EF1010EBEF5A8
:1051F000807F0CF8012FE9D1481C01F1350E10F821
:10520000012F53402B4486455B7BF8D181F8363023
:10521000D5F81001244A03685B68934240F0C984C2
:105220000846372114F07CFAC5460BE194F8341493
:1052300094F8310412F0E0FFA37E002284F83224B7
:10524000002B40F0FF8294F85221002A00F01D81CB
:10525000D4F8481184F8523104F586728A4200F07D
:1052600014810421A4F8503184F84031C4F8482155
:10527000C4F84C11D4F84821D4F8445132F81360E2
:10528000002E40F08A84297A687912F0B5FFAE7159
:10529000B4F8502194F844340132A4F85021FFF7B7
:1052A000F1B900BF00408F404105000094F8523131
:1052B000002B40F09A8094F80A318BB1D4F8001199
:1052C00004F1C40200238A4284F80A3108D0042180
:1052D000A4F8083184F8F830C4F80021C4F80411A7
:1052E000B4F85011D4F84C2191420B46C0F07E82A4
:1052F0000023A4F85031B4F80821D4F804319A42BC
:1053000080F05C8194F8F83083B1B04ED4F8EC00B2
:1053100033687B637B6BD4F8F410C4F8F0301B1A4D
:105320008B42C0F0CB81002384F8F830D10700F124
:10533000A283D4F80031D4F8FC5033F81260002E68
:1053400000F01D84E979687912F056FF0123AB71F2
:10535000B4F808219EE3002B7FF4E1A994F81834F7
:10536000002B7DD184F819343368FB66FA6E94F80B
:105370001434C4F80824002284F81A24002B7FF483
:10538000DBA9012384F81434FFF7D6B93368BB6175
:10539000BB69E06E626F23671B1A9342FFF4AAA9F0
:1053A000002384F87830FFF78EB933683B673B6F92
:1053B000D4F86011D4F86821C4F864315B1A9342C0
:1053C000FFF45AAE002384F86C31E8E5B4F8081114
:1053D000D4F8042191420B46C0F0F383002294F8E4
:1053E0004434A4F80821FFF74DB9D4F8483104F546
:1053F00086710022994284F852213FF45CAF94F800
:105400000A31A4F85021042084F84021C4F848113E
:10541000C4F84C01002B7FF451AFD4F84821D4F8E4
:10542000445132F81360002E00F0B183E9796879B5
:1054300012F0E2FE0123AB71FEE194F8FC31002B87
:1054400000F02F833368BB6594F84830BA6DE2638F
:10545000002B7FF42DAA012384F84830FFF728BAE7
:105460000122002384F8192484F818347CE70023EF
:1054700084F8143494F81834002B3FF473AFEFE73A
:10548000534BC4F8F833FFF7C6B9B4F85011D4F849
:105490004C2191420B46C0F0DA840023A4F850312D
:1054A00094F84434FFF7EEB8297A687912F0A4FE34
:1054B000AE71B4F8C030FFF7C7B894F83D0212F0EF
:1054C000FBFB8046B4F84402D4F8505217F084FF36
:1054D0000146D4F8480218F087F8D4F8401217F0C3
:1054E000CFFF0646404617F077FF0146304617F0DB
:1054F000C7FF064694F8540217F06EFF354918F0BE
:1055000073F829468046D4F84C0217F0AFFE0146E6
:10551000404617F0B5FF294617F0AAFE014630466F
:1055200018F056F9002840F09F81054694F83D0296
:1055300012F0C2FB8046B4F8440217F04DFF01465A
:10554000D4F8480218F050F8D4F8401217F098FF39
:105550000646404617F040FF0146304617F090FFE0
:10556000064694F8550217F037FF0146304618F00A
:1055700025F9002840F0178194F8560217F02CFF07
:105580000146304618F038F9002840F00C8194F8B4
:105590001934002B00F06C820DB984F844540B4E82
:1055A00094F828303268FA61FA69E261002B7FF4DE
:1055B00080A8012384F82830FFF77BB80023A4F8E3
:1055C000083194F84434FFF75DB800BF989EFF1F80
:1055D000003C1CC60000C842002384F8CC3194F87B
:1055E000D10112F069FB04F5DC7817F08DFAD8E9E7
:1055F000082317F0EFFA0022A54B17F0EBFA17F08B
:10560000C1FD3368C7F8843094F8CC31D7F88420D2
:10561000C4F8C02113B9012384F8CC3100234FF022
:10562000690E94F8BC1187F888E007F1B80287F892
:105630008910A7F88C0087F88A3052F8300DC7F827
:1056400092009288A7F89620C8210622184687F86B
:10565000901087F89120E84605F10C0EC2B208239D
:10566000D10748BF297B03F1FF3348BF4A4013F0FD
:10567000FF034FEA5202F3D10130B0F5807F0EF8FC
:10568000012FEBD107F1910107F1970011F8012FDC
:1056900053402B4488425B7BF8D187F89830D5F88B
:1056A00010017C4A03685B68934240F04F820921F5
:1056B00007F1900014F034F8C54603E594F844343B
:1056C000FEF7E0BF002384F89C3194F8A10112F0AA
:1056D000F3FA04F5C47817F017FAD8E9082317F09D
:1056E00079FA00226A4B17F075FA17F04BFD336810
:1056F000FB6794F89C31FA6FC4F8902113B9012329
:1057000084F89C3100234FF0690E94F88C1187F8CF
:1057100088E007F1B80287F88910A7F88C0087F8AD
:105720008A3052F8300DC7F892009288A7F8962078
:10573000C8210622184687F8901087F89120E8467D
:1057400005F10C0EC2B20823D10748BF297B03F133
:10575000FF3348BF4A4013F0FF034FEA5202F3D130
:105760000130B0F5807F0EF8012FEBD107F19101E8
:1057700007F1970011F8012F53402B4488425B7BBF
:10578000F8D187F89830D5F81001424A03685B6871
:10579000934240F0E281092107F1900013F0C0FF2D
:1057A000C54665687AE404F1080528463A4914F0CC
:1057B00009FC94F81934022284F84424002B7FF465
:1057C000EEAE2846354914F0FDFB022384F844343C
:1057D000E5E62B229847FFF7D9B99847FEF794BF23
:1057E000092207F190019847FFF766B994F8402124
:1057F00082B12B4ED4F834513268FA63FA6BD4F884
:105800003C01C4F83821521B8242FFF474AD0022DF
:1058100084F84021C8077FF500AE214ED4F8483106
:10582000326833F81130BA63BA6BC4F83C310123E3
:10583000C4F8342184F84031B4F850310133A4F86D
:10584000503158E594F8271494F8250412F0D4FC4C
:10585000012384F8263494F84434FEF713BF02235E
:1058600084F8E233FFF738B90E4904F10800012546
:1058700014F0A8FB84F8445458E60B22414698479C
:10588000FFF715BB41460B229847FFF76FBB00BFE0
:1058900000408F4041050000845402006C54020017
:1058A000989EFF1F7854020007F1B8090023F922DF
:1058B000A16887F8913007F1930087F892306D4620
:1058C00009F8282D19F0AAF98AB0C8222223D4F8A1
:1058D00004E087F8B1808DF800208DF80130EC46A7
:1058E0000DF1020A07F1B00BC846B8E80F00D84521
:1058F000CAF80000CAF80410CAF80820CAF80C3028
:10590000C1460AF1100AEFD1B8F80030AAF8003009
:105910000EF10C080020C2B20823D10748BF9EF840
:105920000C1003F1FF3348BF4A4013F0FF034FEA66
:105930005202F2D10130B0F5807F08F8012FEAD190
:105940000CF101010CF1230011F8012F53407344B5
:1059500088425B7BF8D18CF82430DEF81001CE4A07
:1059600003685B68934240F020816046252113F074
:10597000D7FEAD46A17E70E00B2241469847FFF767
:1059800037BA41460B229847FFF7D3B907F1B80958
:105990000023F922A16887F8913007F1930087F876
:1059A00092306D4609F8282D19F038F98AB0C822CE
:1059B0002223D4F804E087F8B1808DF800208DF818
:1059C0000130EC460DF1020A07F1B00BC846B8E809
:1059D0000F00D845CAF80000CAF80410CAF8082019
:1059E000CAF80C30C1460AF1100AEFD1B8F80030FD
:1059F000AAF800300EF10C080020C2B20823D1072B
:105A000048BF9EF80C1003F1FF3348BF4A4013F023
:105A1000FF034FEA5202F2D10130B0F5807F08F85F
:105A2000012FEAD10CF101010CF1230011F8012F33
:105A30005340734488425B7BF8D18CF82430DEF805
:105A40001001954A03685B68934240F0B680604657
:105A5000252113F065FEA17EAD463368BB6494F842
:105A60007830BA6CE266002B3EF43EAEFEF73FBEE5
:105A700004F10805A5E6894ED4F80031316833F801
:105A800012303963396BC4F8F4300123C4F8EC10D8
:105A900084F8F8300132A4F8082194F84434FEF771
:105AA000F1BDE8468EB00223C82134228DF80010E3
:105AB0008DF8012084F802320DEB0302694604F5EB
:105AC000007304F50C70D3F80090D3F804C0D3F839
:105AD00008E0D3F80CA0C2F80CA010338342C2F83F
